{
  "_format": "hh-sol-artifact-1",
  "contractName": "Recommendations",
  "sourceName": "contracts/Recommendo.sol",
  "abi": [
    {
      "inputs": [
        {
          "internalType": "uint256",
          "name": "_index",
          "type": "uint256"
        }
      ],
      "name": "deleteRecommendation",
      "outputs": [],
      "stateMutability": "nonpayable",
      "type": "function"
    },
    {
      "inputs": [],
      "name": "getRecommendation",
      "outputs": [
        {
          "internalType": "string[]",
          "name": "",
          "type": "string[]"
        }
      ],
      "stateMutability": "view",
      "type": "function"
    },
    {
      "inputs": [],
      "name": "getRecommendationsLength",
      "outputs": [
        {
          "internalType": "uint256",
          "name": "",
          "type": "uint256"
        }
      ],
      "stateMutability": "view",
      "type": "function"
    },
    {
      "inputs": [
        {
          "internalType": "uint256",
          "name": "",
          "type": "uint256"
        }
      ],
      "name": "recommendations",
      "outputs": [
        {
          "internalType": "string",
          "name": "",
          "type": "string"
        }
      ],
      "stateMutability": "view",
      "type": "function"
    },
    {
      "inputs": [
        {
          "internalType": "string",
          "name": "_recommendation",
          "type": "string"
        }
      ],
      "name": "setRecommendation",
      "outputs": [],
      "stateMutability": "nonpayable",
      "type": "function"
    }
  ],
  "bytecode": "0x608060405234801561001057600080fd5b50610752806100206000396000f3fe608060405234801561001057600080fd5b50600436106100565760003560e01c80629f3ace1461005b578063482ec787146100705780637f73e19d14610086578063de2bb3d3146100a6578063fe8d4106146100b9575b600080fd5b61006e6100693660046104fd565b6100ce565b005b6000546040519081526020015b60405180910390f35b6100996100943660046105ae565b610112565b60405161007d9190610614565b61006e6100b43660046105ae565b6101be565b6100c16102bd565b60405161007d919061062e565b60008054600181018255908052815161010e917f290decd9548b62a8d60345a988386fc84ba6bc95484008f6362f93160ef3e56301906020840190610396565b5050565b6000818154811061012257600080fd5b90600052602060002001600091509050805461013d90610690565b80601f016020809104026020016040519081016040528092919081815260200182805461016990610690565b80156101b65780601f1061018b576101008083540402835291602001916101b6565b820191906000526020600020905b81548152906001019060200180831161019957829003601f168201915b505050505081565b60005481106102255760405162461bcd60e51b815260206004820152602960248201527f54686973207265636f6d6d656e646174696f6e20696e64657820646f6573206e60448201526837ba1032bc34b9ba1760b91b606482015260840160405180910390fd5b6000600161023260005490565b61023c91906106cb565b8154811061024c5761024c6106f0565b9060005260206000200160008281548110610269576102696106f0565b9060005260206000200190805461027f90610690565b61028a92919061041a565b50600080548061029c5761029c610706565b6001900381819060005260206000200160006102b89190610495565b905550565b60606000805480602002602001604051908101604052809291908181526020016000905b8282101561038d57838290600052602060002001805461030090610690565b80601f016020809104026020016040519081016040528092919081815260200182805461032c90610690565b80156103795780601f1061034e57610100808354040283529160200191610379565b820191906000526020600020905b81548152906001019060200180831161035c57829003601f168201915b5050505050815260200190600101906102e1565b50505050905090565b8280546103a290610690565b90600052602060002090601f0160209004810192826103c4576000855561040a565b82601f106103dd57805160ff191683800117855561040a565b8280016001018555821561040a579182015b8281111561040a5782518255916020019190600101906103ef565b506104169291506104d2565b5090565b82805461042690610690565b90600052602060002090601f016020900481019282610448576000855561040a565b82601f10610459578054855561040a565b8280016001018555821561040a57600052602060002091601f016020900482015b8281111561040a57825482559160010191906001019061047a565b5080546104a190610690565b6000825580601f106104b1575050565b601f0160209004906000526020600020908101906104cf91906104d2565b50565b5b8082111561041657600081556001016104d3565b634e487b7160e01b600052604160045260246000fd5b60006020828403121561050f57600080fd5b813567ffffffffffffffff8082111561052757600080fd5b818401915084601f83011261053b57600080fd5b81358181111561054d5761054d6104e7565b604051601f8201601f19908116603f01168101908382118183101715610575576105756104e7565b8160405282815287602084870101111561058e57600080fd5b826020860160208301376000928101602001929092525095945050505050565b6000602082840312156105c057600080fd5b5035919050565b6000815180845260005b818110156105ed576020818501810151868301820152016105d1565b818111156105ff576000602083870101525b50601f01601f19169290920160200192915050565b60208152600061062760208301846105c7565b9392505050565b6000602080830181845280855180835260408601915060408160051b870101925083870160005b8281101561068357603f198886030184526106718583516105c7565b94509285019290850190600101610655565b5092979650505050505050565b600181811c908216806106a457607f821691505b602082108114156106c557634e487b7160e01b600052602260045260246000fd5b50919050565b6000828210156106eb57634e487b7160e01b600052601160045260246000fd5b500390565b634e487b7160e01b600052603260045260246000fd5b634e487b7160e01b600052603160045260246000fdfea2646970667358221220fc19363cd05467be86d56f4238a2aef0c0dc42442d8813945ea0dc0dd17fc51764736f6c63430008090033",
  "linkReferences": {},
  "deployedLinkReferences": {}
}